:100000000C9410010C9457010C9457010C94570157
:100010000C9457010C9457010C9457010C94570100
:100020000C9457010C9457010C94C9060C94570179
:100030000C94EC0D0C9457010C9457010C9457013F
:100040000C9457010C9457010C9457010C945701D0
:100050000C9457010C94360E0C9457010C945701D4
:100060000C9457010C9457010C9457010C945701B0
:100070000C9457010C9457010C9457010C945701A0
:100080000C9457010C9457010C9457010C94570190
:100090000C9457010C9457010C9457010C94570180
:1000A0000C9457010C9457010C945701BF07E107BA
:1000B000D408E107D40826084908D4089E08B108E6
:1000C00001E001E10117021702E002E10001E00195
:1000D0002B022B02E00001E2015B025B02E2000066
:1000E000C001C002C0C0B5A6C1C2461C0343004D3A
:1000F00000580020004B0020005300690078002DBC
:10010000006B006500790000000C036A0073007446
:10011000007700790000000403090409025B000372
:100120000100A032090400000103010100092111AE
:100130000100012240000705810308000A090401AB
:10014000000103000000092111010001223600070F
:1001500005820308000A09040200020300000009E6
:10016000211101000122220007058303200001075D
:100170000503032000011201100100000008EDFE3C
:1001800060600100010200010631FF0974A101094C
:1001900075150026FF009520750881020976150067
:1001A00026FF00952075089102C005010980A10174
:1001B00085021601002637001A81002AB700751043
:1001C00095018100C0050C0901A1018503160100FC
:1001D000269C021A01002A9C02751095018100C01C
:1001E00005010906A101050719E029E71500250108
:1001F00095087501810295017508810105081901AD
:100200002905950575019102950175039101050771
:10021000190029FF150026FF00950675088100C00A
:1002200011241FBECFEFDAE0DEBFCDBF04B603FE60
:1002300027C08091640290916502A0916602B091FE
:1002400067028730904BA740B04BD1F41092640204
:1002500010926502109266021092670214BE84B773
:10026000877F84BF0FB6F894A8958091600088615D
:1002700080936000109260000FBEE0E0F8E3099503
:1002800011E0A0E0B1E0EEEAFEE102C005900D92BF
:10029000A232B107D9F722E0A2E2B1E001C01D927B
:1002A000A436B207E1F70E9497030C94550F0C9403
:1002B0000000FC01613051F018F0623069F012C0AA
:1002C0008281882379F086ED90E0089582818823E9
:1002D00049F08DEC90E008958281882319F080EC3C
:1002E00090E0089580E090E0089580B38C7F80BB1B
:1002F00081B38C7F81BB089585B7806885BF85B742
:10030000806885BF0E94750180B38F7880BB81B300
:10031000806781BBA4E2B1E01C92E2E2F1E01082CE
:1003200011961C9211820895FF920F931F93CF9301
:10033000DF9302E211E0C0E0D1E085E0F82EC130A9
:1003400019F0809A589802C0819A599880EA8A9543
:10035000F1F78FB1829581708D277D9902C092E06F
:1003600001C090E0892B7E9902C094E001C090E02A
:10037000892BF8019081981719F08083F092000181
:100380000E947501CF5F0F5F1F4FC230C1F6809191
:1003900000018823A1F0815080930001811109C0E0
:1003A0008091220180932401809123018093250173
:1003B00006C08FE99FE00197F1F700C0000081E0DF
:1003C000DF91CF911F910F91FF900895E82FF0E0FA
:1003D000EC5DFE4F8081089508958091320208956A
:1003E0000895CF93DF9300D01F92CDB7DEB7209151
:1003F0005B02243021F523E029839B838A8382E0FA
:100400008093E9008FEF9091E800815095FD06C040
:1004100095ED9A95F1F700008111F5CF8091E800F4
:1004200085FF0DC040E050E063E070E0CE01019632
:100430000E94BB048091E8008E778093E8000F90C3
:100440000F900F90DF91CF910895CF93DF9300D05D
:100450001F92CDB7DEB720915B02243029F522E050
:100460002983805891099B838A832093E9008FEF29
:100470009091E800815095FD06C095ED9A95F1F7B1
:1004800000008111F5CF8091E80085FF0DC040E0AC
:1004900050E063E070E0CE0101960E94BB048091C1
:1004A000E8008E778093E8000F900F900F90DF9117
:1004B000CF910895CF93DF9320915B02243049F5CB
:1004C00021E02093E90021E8215059F03091E80023
:1004D00035FD07C0EFE3F1E03197F1F700C0000010
:1004E000F3CF2091E80025FF14C0EC0140E050E07C
:1004F00068E070E00E94BB048091E8008E778093F2
:10050000E80088E0FE01AAE2B2E001900D928A952F
:10051000E1F7DF91CF910895CF93C0912801C111E8
:100520000BC00E942A0E643C79408105910520F0A1
:1005300081E080932801C1E08C2FCF9108958091B4
:100540005A02811109C00E944E060E94AB0680919A
:10055000E20084608093E200089510925A020895A8
:100560000895089542E061EC81E00E94C70542E0F1
:1005700061EC82E00E94C70542E261EC83E00C94EA
:10058000C70580915D02833009F453C030F4813097
:1005900071F0823009F48CC008958A3009F478C073
:1005A0008B3009F45EC0893009F09AC020C0809178
:1005B0005C02813A09F094C08091E800877F8093C3
:1005C000E8008091600290916102892B21F468E03B
:1005D0008AE292E003C060E080E090E070E00E9478
:1005E00008058091E8008B778093E800089580915A
:1005F0005C02813209F074C08091600290916102C6
:10060000892B09F06DC08091E800877F8093E80016
:100610008091E80082FD05C080915B028111F8CFD6
:100620005FC08091F100809332028091E8008B7767
:1006300053C080915C02813A09F052C080916002FF
:1006400090916102892B09F04BC08091E800877F6F
:100650008093E8008091E80080FFFCCF809110013A
:1006600036C080915C028132D9F580916002909110
:100670006102892BA9F58091E800877F8093E800CB
:100680000E94FC0580915E02809310010C94D50BB2
:1006900080915C02813221F58091E800877F809310
:1006A000E8000E94FC0580915F0280933302089568
:1006B00080915C02813AA1F48091E800877F809369
:1006C000E8008091E80080FFFCCF809133028093A6
:1006D000F1008091E8008E778093E8000C94FC058F
:1006E00008958091320280932901109232020E9473
:1006F000E4090C94D50B0C9471030E94A90D809110
:100700005902882329F00E94D20D81110C94A5046E
:1007100008950E94E80D8091290180933202089586
:100720000C94890308950C9492030C949203CF9334
:1007300084B7877F84BF0FB6F894A8958091600036
:10074000886180936000109260000FBE90E080E8A6
:100750000FB6F89480936100909361000FBE86E01D
:1007600091E00E9407090E9495030E944F090E9490
:100770004E060E94AB068091E20084608093E20006
:1007800078940E94510980915B02843029F00E9484
:10079000EC080E949203F7CF0E949303C3E080917C
:1007A0005B02853019F40E947D03F9CF0E94550940
:1007B0002091E4003091E50080912601909127017D
:1007C0002817390709F468C08091E4009091E5008A
:1007D00090932701809326010E948C02882309F4BC
:1007E0005BC080915B02843009F056C08091E900C3
:1007F0008F702091EC00922F917020FD90E8892B52
:10080000C093E9009091EB0090FF43C09091EE00FF
:1008100097FF3FC09091040120910301291709F12E
:100820002091E80025FF1DC0E0910101F091020137
:10083000E90FF11D30819F5F209105019223909374
:1008400004013093F1009091E80095FDE3CF909181
:10085000E80090FFDFCF9091E8009E779093E8004A
:10086000D9CF9091F3002091F20030E0392B232B67
:1008700081F09091E80090FF0CC09091E80095FF06
:1008800003C01092F100F9CF9091E8009E77909309
:10089000E8008F708093E9000E94EC0880CF292F38
:1008A000332723303105C9F060F42130310581F060
:1008B0002230310509F041C08BE590E02BE131E0B9
:1008C00040C021323105E1F02232310531F135C02D
:1008D00082E190E026E731E034C09927813091052C
:1008E00049F028F0029749F5EBEEF0E005C0E7E1AA
:1008F000F1E002C0E9E0F1E0849190E09F0121C0C5
:100900006330D8F4E62FF0E0EE0FFF1FE45EFE4FF9
:100910002081318189E090E014C0633070F470E090
:10092000FB01EE0FFF1FEA5EFE4F20813181FB01CC
:10093000ED5EFE4F808190E004C080E090E020E01A
:1009400030E0FA0131832083089580E189BD82E19E
:1009500089BD09B400FEFDCF8091D8008F7D8093C2
:10096000D8008091E00082608093E0008091E000F8
:1009700081FDFCCF0895CF92DF92EF92FF920F930B
:100980001F93CF93DF93EC018B017A010E941B062A
:10099000811135C0E114F10439F0F70180819181B2
:1009A000081B190BC80FD91FC12CD12C011511051B
:1009B00029F18091E80085FD18C08091E8008E77CC
:1009C0008093E8000E94EC08E114F10449F0F7017B
:1009D00080819181C80ED91ED182C08285E00FC06E
:1009E0000E941B06882311F30AC089918093F100AD
:1009F00001501109FFEFCF1ADF0AD8CF80E0DF9155
:100A0000CF911F910F91FF90EF90DF90CF900895BD
:100A100020916202309163022617370748F0611572
:100A2000710539F42091E8002E772093E80001C089
:100A3000B901FC0120E06115710579F180915B023B
:100A40008823F1F18530F1F18091E80083FD3CC00D
:100A50008091E80082FD2EC08091E80080FFEBCFFE
:100A60002091F3008091F20090E0922B61157105C6
:100A700051F08830910538F421912093F1006150B4
:100A800071090196F3CF21E0089709F020E08091E9
:100A9000E8008E778093E800CECF2111CFCF0AC037
:100AA00080915B02882361F0853061F08091E800DD
:100AB00083FD0AC08091E80082FFF2CF80E00895B4
:100AC00082E0089583E0089581E008952091620214
:100AD000309163022617370748F06115710539F424
:100AE0002091E8002E772093E80001C0B901FC01B5
:100AF00020E06115710591F180915B02882309F472
:100B000040C0853009F43FC08091E80083FD3DC0BE
:100B10008091E80082FD2FC08091E80080FFE9CF3E
:100B20002091F3008091F20090E0922B6115710505
:100B300059F08830910540F424912093F1003196CA
:100B4000615071090196F2CF21E0089709F020E089
:100B50008091E8008E778093E800CBCF2111CCCF35
:100B60000AC080915B02882361F0853061F080913A
:100B7000E80083FD0AC08091E80082FFF2CF80E0A8
:100B8000089582E0089583E0089581E00895982F04
:100B9000973068F59093E900981739F07091EC0060
:100BA0002091ED005091F00003C0242F762F50E0EB
:100BB00021FD02C09F5FECCF3091EB003E7F309370
:100BC000EB003091ED003D7F3093ED003091EB0074
:100BD00031603093EB007093EC002093ED00509364
:100BE000F0002091EE0027FDE5CF80E008958F70A2
:100BF0008093E90081E0089580915C0287FF11C035
:100C00008091E80082FD05C080915B028111F8CFE0
:100C100011C08091E8008B770BC080915B02882324
:100C200049F08091E80080FFF8CF8091E8008E774E
:100C30008093E80008952091E4003091E50095E666
:100C40004091EC00842F817040FF23C08091E80028
:100C500080FD1DC080915B02882399F0853099F05A
:100C60008091EB0085FD11C04091E4005091E500BA
:100C70002417350729F3915011F09A01E1CF84E050
:100C8000089582E0089583E0089581E0089580E06A
:100C900008954091E80042FFDDCF08950E94BC0610
:100CA0000E94C406E0EEF0E0808181608083E8ED80
:100CB000F0E080818F77808319BCA7EDB0E08C9144
:100CC0008E7F8C9380818F7E808310925A0208954C
:100CD0000F931F93CF93DF930E94BC060E94C4061C
:100CE000C8EDD0E088818F77888388818068888389
:100CF00088818F7D888319BC10925B021092570205
:100D0000109259021092580200EE10E0F801808112
:100D10008B7F808388818160888342E060E080E00F
:100D20000E94C705E1EEF0E080818E7F8083E2EED5
:100D3000F0E0808181608083808188608083F80119
:100D400080818E7F8083888180618883DF91CF91CD
:100D50001F910F910895E8EDF0E080818F7E8083F0
:100D6000E7EDF0E080818160808384E082BF81E0F4
:100D700080935A020C946806E8EDF0E080818E7F43
:100D800080831092E20008951092DA001092E10040
:100D900008951F920F920FB60F9211242F933F9335
:100DA0004F935F936F937F938F939F93AF93BF9373
:100DB000EF93FF938091E10082FF0BC08091E200EE
:100DC00082FF07C08091E1008B7F8093E1000E9449
:100DD000B1028091DA0080FF1FC08091D80080FFAF
:100DE0001BC08091DA008E7F8093DA008091D90059
:100DF00080FF0DC080E189BD82E189BD09B400FE9C
:100E0000FDCF81E080935B020E949F0205C019BC68
:100E100010925B020E94AD028091E10080FF19C038
:100E20008091E20080FF15C08091E2008E7F809368
:100E3000E2008091E20080618093E2008091D8001E
:100E400080628093D80019BC85E080935B020E9489
:100E50007B038091E10084FF30C08091E20084FF39
:100E60002CC080E189BD82E189BD09B400FEFDCFBF
:100E70008091D8008F7D8093D8008091E1008F7E93
:100E80008093E1008091E2008F7E8093E200809168
:100E9000E20081608093E20080915702882311F084
:100EA00084E007C08091E30087FD02C081E001C0BB
:100EB00083E080935B020E9490038091E10083FFB6
:100EC00024C08091E20083FF20C08091E100877FF1
:100ED0008093E10082E080935B0210925702809140
:100EE000E1008E7F8093E1008091E2008E7F80930D
:100EF000E2008091E20080618093E20042E060E0E5
:100F000080E00E94C7050E94B002FF91EF91BF915F
:100F1000AF919F918F917F916F915F914F913F9191
:100F20002F910F900FBE0F901F9018951F93CF9386
:100F3000DF93CDB7DEB7AA970FB6F894DEBF0FBE2A
:100F4000CDBFECE5F2E08091F100819322E0E43640
:100F5000F207C9F70E94C1028091E80083FF24C113
:100F600080915C0290915D02492F50E04A3051051A
:100F700008F01AC1FA01EA5AFF4F0C944F0F80385B
:100F800081F0823809F010C1809160028F708093E7
:100F9000E9008091EB0085FB882780F91092E90039
:100FA00006C08091580290915902911182609091EF
:100FB000E800977F9093E8008093F1001092F10091
:100FC000C8C0282F2D7F09F0EFC0882319F0823088
:100FD00061F0EAC080915E02813009F0E5C0933093
:100FE00009F080E0809359022BC080915E0281114C
:100FF00027C0809160028F7009F4D6C08093E90009
:101000002091EB0020FF1CC0933021F48091EB0075
:10101000806214C09091EB0090619093EB0021E00E
:1010200030E0A90102C0440F551F8A95E2F74093B2
:10103000EA001092EA008091EB0088608093EB0058
:101040001092E9008091E800877F86C08111ACC0D2
:1010500010915E021F778091E3008078812B80934E
:10106000E3008091E800877F8093E8000E94FC0500
:101070008091E80080FFFCCF8091E300806880933E
:10108000E300111102C082E001C083E080935B02A3
:101090008BC08058823008F087C080915E029091AA
:1010A0005F028C3D53E0950779F583E08A838AE2FD
:1010B00089834FB7F894DE01139620E03EE051E2B9
:1010C000E32FF0E050935700E49120FF03C0E29536
:1010D000EF703F5FEF708E2F90E0EA3010F0C79610
:1010E00001C0C0968D939D932F5F243149F74FBF68
:1010F0008091E800877F8093E8006AE270E0CE018B
:1011000001960E94080514C0AE014F5F5F4F6091C9
:1011100060020E944F04BC01892B09F445C09091E4
:10112000E800977F9093E80089819A810E94660584
:101130008091E8008B778093E80036C08038A1F575
:101140008091E800877F8093E80080915702809328
:10115000F1008091E8008E778093E8000E94FC0502
:1011600023C0811121C080915E0290915F02992776
:101170000297D4F48091E800877F8093E800809103
:101180005E02809357020E94FC05809157028111F4
:1011900006C08091E30087FD02C081E001C084E0C9
:1011A00080935B020E94B2028091E80083FF0AC034
:1011B0008091E800877F8093E8008091EB00806257
:1011C0008093EB00AA960FB6F894DEBF0FBECDBF9A
:1011D000DF91CF911F910895CF9380915B02882377
:1011E000A1F0C091E900CF709091EC00892F81703F
:1011F00090FD80E8C82B1092E9008091E80083FD03
:101200000E949607CF70C093E900CF910895909304
:101210003902809338020895E0913802F091390242
:10122000309721F00190F081E02D099480E008953D
:10123000E0913802F0913902309721F00280F38179
:10124000E02D099408952091360230913702281735
:10125000390771F09093370280933602E09138029B
:10126000F0913902309721F00680F781E02D099442
:10127000089520913402309135022817390771F012
:101280009093350280933402E0913802F091390254
:10129000309721F00084F185E02D099408950C9495
:1012A000E5090E94150E0C947C01BF92CF92DF924B
:1012B000EF92FF920F931F93CF93DF9300D000D054
:1012C0001F92CDB7DEB70E9494010BE312E0F12C20
:1012D0008F2D0E94E601B82EF801C080C82639F48F
:1012E000F3940F5F1F4FF2E0FF12F2CF30C08091F6
:1012F000510281FD0E94E609D12CEE24E3948C2D4D
:101300008E21F9F0D982FA8291E08B2D8E2109F499
:1013100090E09B830E941E0E8160782F9D838C83BA
:1013200049815A816B818D810E948A0B49815A8142
:101330006B817C818D810E94960DF80180818E25C4
:101340008083D394EE0CF3E0DF12D9CFC9CF8FEFB7
:1013500089838A831B820E941E0E8160782F9D8361
:101360008C8349815A816B818D810E948A0B0E94F6
:10137000950D0E940C0990913A028917A1F00E94E4
:101380000C0980933A020F900F900F900F900F90DE
:10139000DF91CF911F910F91FF90EF90DF90CF9051
:1013A000BF900C94A50D0F900F900F900F900F9081
:1013B000DF91CF911F910F91FF90EF90DF90CF9031
:1013C000BF9008950C94EC01089508950895089530
:1013D0000895882309F49BC09CEF980F913A18F464
:1013E0000E94E40C0DC090E2980F983058F487707A
:1013F00091E001C0990F8A95EAF7892F0E94220D8A
:101400000C94CE0C9BE5980F933070F4853A29F03C
:10141000863A31F083E890E005C081E890E002C0B0
:1014200082E890E00C94230998E5980F953108F034
:101430006EC0883A61F1893A69F18A3A71F18B3A62
:1014400079F18C3A81F18D3A89F18E3A91F18F3AA6
:1014500099F1813BA1F1803BA9F1823BB1F1833B42
:10146000B9F1843BC1F1853BC9F1863BD1F1873BA2
:10147000D9F1883BE1F1893BE9F18A3BF1F18B3B02
:10148000F9F18C3B09F43FC080E090E03EC082EE71
:1014900090E03BC089EE90E038C08AEE90E035C025
:1014A00085EB90E032C086EB90E02FC083EB90E0BC
:1014B0002CC084EB90E029C087EB90E026C08CEC38
:1014C00090E023C08DEC90E020C083E891E01DC047
:1014D0008AE891E01AC082E991E017C084E991E0BE
:1014E00014C081E292E011C083E292E00EC084E277
:1014F00092E00BC085E292E008C086E292E005C06F
:1015000087E292E002C08AE292E00C9439090895E1
:10151000882329F19CEF980F913A18F40E94010D4D
:101520000DC090E2980F983058F4877091E001C098
:10153000990F8A95EAF7892F0E94280D0C94CE0CFA
:101540009BE5980F933020F480E090E00C94230901
:10155000885A853120F480E090E00C943909089590
:10156000EF92FF920F931F93CF93DF9300D000D0A1
:101570001F92CDB7DEB78C010E94A70D8111BEC0AE
:1015800085E0F801DE01119601900D928A95E1F750
:10159000F80140815181238134812115310531F0D9
:1015A0005F3F31F481E04F3F19F403C081E001C097
:1015B00080E080FDA3C0F801E280722F3D832C8380
:1015C0006E2D8D810E94740CF82E892F82958F705C
:1015D000843009F450C018F48230C0F08FC08C30D1
:1015E00009F479C08F3009F089C0492F4F706F2DF1
:1015F000C8010F900F900F900F900F90DF91CF9137
:101600001F910F91FF90EF900C947D0E892F807F9A
:101610009F70192F882311F01295107FEE20A9F0EA
:10162000112329F0812F0E94350D0E94CE0C8F2DA1
:101630000F900F900F900F900F90DF91CF911F910F
:101640000F91FF90EF900C94E9098F2D0E94880A6A
:10165000112309F453C0812F0E943B0D0F900F906E
:101660000F900F900F90DF91CF911F910F91FF90EE
:10167000EF900C94CE0C892F86958695837019F087
:101680008130A9F03BC0EE2019F08F2D937002C07D
:1016900080E090E00F900F900F900F900F90DF91EF
:1016A000CF911F910F91FF90EF900C942309EE20A2
:1016B00019F08F2D937002C080E090E00F900F9092
:1016C0000F900F900F90DF91CF911F910F91FF908E
:1016D000EF900C943909492F4F706F2DC8010E946B
:1016E00059010F900F900F900F900F90DF91CF91B5
:1016F0001F910F91FF90EF900C94D90B0F900F90CA
:101700000F900F900F90DF91CF911F910F91FF904D
:10171000EF900895CF93DF93CDB7DEB72A970FB63A
:10172000F894DEBF0FBECDBF942F4E83252F5F836D
:10173000688779878A8749855A85452B31F02F3FFD
:1017400031F481E09F3F19F403C081E001C080E0E3
:1017500080FD07C04E815F81688579858A850E94FA
:10176000960D85E0FE013696DE01119601900D92F0
:101770008A95E1F7CE0101960E94B00A2A960FB62B
:10178000F894DEBF0FBECDBFDF91CF9108950E94C8
:10179000420D0E94110D0E94CE0C80E090E00E944C
:1017A000230980E090E00C9439090E94320D0C94DA
:1017B000C70BDF92EF92FF920F931F93CF93DF93AC
:1017C000FC01892B09F488C0E12CF12CDD24D39491
:1017D000EF0121968491853709F460C058F484376D
:1017E00008F04EC0843008F068C08130D1F08230FB
:1017F00071F172C0883709F45BC050F4863709F480
:1018000053C0873709F068C08E2D0E942F0D52C03B
:101810009CE7980F903708F05FC08F770E94880A86
:101820004EC08F010E5F1F4FFE01849190E2980F12
:10183000983050F48770FD2D01C0FF0F8A95EAF7AC
:101840008F2F0E94350D15C00E94E90914C08F0129
:101850000E5F1F4FFE01849190E2980F983068F45C
:101860008770FD2D01C0FF0F8A95EAF78F2F0E9428
:101870003B0D0E94CE0CE80122C00E94880AFBCFDB
:10188000CF010296FE01C491CC2361F0EFE9FFE0A5
:101890003197F1F700C00000C150F6CFCF0102969A
:1018A000FE01F490EC010BC00E941F0DE82E07C052
:1018B0000E94320D0E94CE0C02C00E94E9098F2DB9
:1018C000882341F0EFE9FFE03197F1F700C0000015
:1018D0008150F6CFFE017CCFDF91CF911F910F9108
:1018E000FF90EF90DF900895EF92FF920F931F9378
:1018F000CF93DF9300D000D01F92CDB7DEB74983DE
:10190000052F5A836B837C838D838C819D81892BEA
:1019100031F05F3F31F481E04F3F19F403C081E0C3
:1019200001C080E080FF03C080E090E02BC08B818D
:1019300010E0E42EF12C8823B1F060914302709105
:10194000440280914502909146020E94450D980103
:10195000220F331F020F131F035C1D4FF801EE0D02
:10196000FF1D80830BC0C801880F991F080F191F26
:10197000035C1D4FF801EE0DFF1D808169817A81A6
:101980000E949A0E0F900F900F900F900F90DF9182
:10199000CF911F910F91FF90EF900895E091110169
:1019A000F0911201809150028083E0911101F09139
:1019B0001201908180914F02892B808380911101C7
:1019C000909112010C94180920911101309112018B
:1019D000F90132969FEF40E05191851789F09F3FC2
:1019E00019F4511101C0942F4F5F4630A9F79F3F62
:1019F00039F0F901E90FF11D97FDFA9582830895F9
:101A00000895E0911101F09112019F012A5F3F4F6B
:101A10009281891301C012823196E217F307C1F750
:101A2000089581E090E0E0911101F0911201E80F3A
:101A3000F91F1082019688309105A9F708958091C9
:101A40005002089590915002892B8093500208957E
:101A5000809590915002892380935002089580933D
:101A60005002089510925002089590914F02892BD0
:101A700080934F020895809590914F02892380931F
:101A80004F02089510924F020895CF92DF92EF9285
:101A9000FF926C01EE24FF24C114D104E104F1048F
:101AA00021F0C701B60120E101C020E0C72ED82EE9
:101AB000E92EFF24C114D104E104F10419F0285FD8
:101AC000C701B6016B017C0154E0F694E794D7940A
:101AD000C7945A95D1F7C114D104E104F10419F067
:101AE0002C5FC701B6016B017C0142E0F694E794DC
:101AF000D794C7944A95D1F7C114D104E104F104F5
:101B000019F02E5FC701B601DC01CB01B695A79590
:101B100097958795892B8A2B8B2B09F02F5F822F26
:101B2000FF90EF90DF90CF9008950895CF93DF93CB
:101B300000D000D01F92CDB7DEB70F900F900F905E
:101B40000F900F90DF91CF9108950C94E20980E0FF
:101B5000089580915B02843021F11092520220E4BA
:101B600088E190E00FB6F894A895809360000FBECE
:101B70002093600083B7817F846083BF83B78160D7
:101B800083BF7894889583B78E7F83BF0FB6F89410
:101B9000A895809160008861809360001092600039
:101BA0000FBE08950E94E7090E9494010E94E8096F
:101BB00080E00E94E601811108C081E00E94E601F8
:101BC00091E0811103C090E001C091E0892F089558
:101BD0000E94E4090C94D50B1F920F920FB60F923E
:101BE00011248F939F93AF93BF93809152028111E1
:101BF00013C08091530290915402A0915502B0916C
:101C000056024196A11DB11D809353029093540238
:101C1000A0935502B0935602BF91AF919F918F91BF
:101C20000F900FBE0F901F90189582E084BD93E037
:101C300095BD9AEF97BD80936E0008952FB7F894E5
:101C40008091530290915402A0915502B091560296
:101C50002FBF08952FB7F8946091530270915402EA
:101C600080915502909156022FBF08951F920F92B6
:101C70000FB60F9211248F939F93AF93BF938091D0
:101C8000530290915402A0915502B09156020196D0
:101C9000A11DB11D8093530290935402A09355024D
:101CA000B0935602BF91AF919F918F910F900FBE4D
:101CB0000F901F9018950E944E06F8942FEF87EA18
:101CC00091E6215080409040E1F700C0000087E09D
:101CD00090EBDC018093640290936502A09366020E
:101CE000B09367029CE088E10FB6F894A8958093C2
:101CF00060000FBE90936000FFCF0895272F30E063
:101D0000F901EE0FFF1F2E0F3F1F96E0899F200D58
:101D1000311D1124F901E60FF11DEB51FF4F8491A4
:101D20000895E82FF0E0EE0FFF1FE15AF040859193
:101D3000949108950E947E0E90E4980F903218F4CA
:101D40000E94910E08958D3B50F4883AA0F5853A93
:101D500028F5843000F5813009F49DC099C0883E93
:101D600098F4803EC0F48F3B09F092C00E94D50BDE
:101D70002FEF80E792E0215080409040E1F700C0D3
:101D800000000E945B0E84C0803F08F481C0282FB1
:101D900030E0306582C0282F30E07FC0853A29F0DE
:101DA000863A31F023E830E478C021E830E475C0A9
:101DB00022E830E472C0883A61F1893A69F18A3ADE
:101DC00071F18B3A79F18C3A81F18D3A89F18E3A41
:101DD00091F18F3A99F1813BA1F1803BA9F1823BCE
:101DE000B1F1833BB9F1843BC1F1853BC9F1863B3D
:101DF000D1F1873BD9F1883BE1F1893BE9F18A3B9D
:101E0000F1F18B3BF9F18C3B09F43FC020E034E465
:101E100044C022EE34E441C029EE34E43EC02AEE50
:101E200034E43BC025EB34E438C026EB34E435C061
:101E300023EB34E432C024EB34E42FC027EB34E44A
:101E40002CC02CEC34E429C02DEC34E426C023E86B
:101E500035E423C02AE835E420C022E935E41DC07A
:101E600024E935E41AC021E236E417C023E236E45F
:101E700014C024E236E411C025E236E40EC026E2A6
:101E800036E40BC027E236E408C02AE236E405C097
:101E900020E030E002C021E030E0C9010895EE0FFB
:0E1EA000FF1F0590F491E02D0994F894FFCFF8
:101EAE00052A010000FFED015A02F0012502F101A1
:101EBE00014702403622E001AA0188012D014601A8
:021ECE005F01B2
:00000001FF
